{
  "_format": "hh-sol-artifact-1",
  "contractName": "Vitals",
  "sourceName": "contracts/Vitals.sol",
  "abi": [
    {
      "inputs": [
        {
          "internalType": "address",
          "name": "",
          "type": "address"
        }
      ],
      "name": "records",
      "outputs": [
        {
          "internalType": "string",
          "name": "",
          "type": "string"
        }
      ],
      "stateMutability": "view",
      "type": "function"
    },
    {
      "inputs": [
        {
          "internalType": "string",
          "name": "_hash",
          "type": "string"
        }
      ],
      "name": "set",
      "outputs": [],
      "stateMutability": "nonpayable",
      "type": "function"
    }
  ],
  "bytecode": "0x608060405234801561001057600080fd5b50610542806100206000396000f3fe608060405234801561001057600080fd5b50600436106100365760003560e01c8063469e90671461003b5780634ed3885e1461006b575b600080fd5b6100556004803603810190610050919061029e565b610087565b6040516100629190610341565b60405180910390f35b610085600480360381019061008091906102c7565b610127565b005b600160205280600052604060002060009150905080546100a690610454565b80601f01602080910402602001604051908101604052809291908181526020018280546100d290610454565b801561011f5780601f106100f45761010080835404028352916020019161011f565b820191906000526020600020905b81548152906001019060200180831161010257829003601f168201915b505050505081565b80600160003373ffffffffffffffffffffffffffffffffffffffff1673ffffffffffffffffffffffffffffffffffffffff168152602001908152602001600020908051906020019061017a92919061017e565b5050565b82805461018a90610454565b90600052602060002090601f0160209004810192826101ac57600085556101f3565b82601f106101c557805160ff19168380011785556101f3565b828001600101855582156101f3579182015b828111156101f25782518255916020019190600101906101d7565b5b5090506102009190610204565b5090565b5b8082111561021d576000816000905550600101610205565b5090565b600061023461022f84610394565b610363565b90508281526020810184848401111561024c57600080fd5b610257848285610412565b509392505050565b60008135905061026e816104f5565b92915050565b600082601f83011261028557600080fd5b8135610295848260208601610221565b91505092915050565b6000602082840312156102b057600080fd5b60006102be8482850161025f565b91505092915050565b6000602082840312156102d957600080fd5b600082013567ffffffffffffffff8111156102f357600080fd5b6102ff84828501610274565b91505092915050565b6000610313826103c4565b61031d81856103cf565b935061032d818560208601610421565b610336816104e4565b840191505092915050565b6000602082019050818103600083015261035b8184610308565b905092915050565b6000604051905081810181811067ffffffffffffffff8211171561038a576103896104b5565b5b8060405250919050565b600067ffffffffffffffff8211156103af576103ae6104b5565b5b601f19601f8301169050602081019050919050565b600081519050919050565b600082825260208201905092915050565b60006103eb826103f2565b9050919050565b600073ffffffffffffffffffffffffffffffffffffffff82169050919050565b82818337600083830152505050565b60005b8381101561043f578082015181840152602081019050610424565b8381111561044e576000848401525b50505050565b6000600282049050600182168061046c57607f821691505b602082108114156104805761047f610486565b5b50919050565b7f4e487b7100000000000000000000000000000000000000000000000000000000600052602260045260246000fd5b7f4e487b7100000000000000000000000000000000000000000000000000000000600052604160045260246000fd5b6000601f19601f8301169050919050565b6104fe816103e0565b811461050957600080fd5b5056fea26469706673582212203edc89549f03065df62ca2fb962131f82f85b9754cddb486f889fd30752e1cad64736f6c63430008000033",
  "linkReferences": {},
  "deployedLinkReferences": {}
}