{
  "_format": "hh-sol-artifact-1",
  "contractName": "Vitals",
  "sourceName": "contracts/Vitals.sol",
  "abi": [
    {
      "inputs": [
        {
          "internalType": "address",
          "name": "_address",
          "type": "address"
        }
      ],
      "name": "get",
      "outputs": [
        {
          "internalType": "string[]",
          "name": "",
          "type": "string[]"
        }
      ],
      "stateMutability": "view",
      "type": "function"
    },
    {
      "inputs": [
        {
          "internalType": "address",
          "name": "",
          "type": "address"
        },
        {
          "internalType": "uint256",
          "name": "",
          "type": "uint256"
        }
      ],
      "name": "records",
      "outputs": [
        {
          "internalType": "string",
          "name": "",
          "type": "string"
        }
      ],
      "stateMutability": "view",
      "type": "function"
    },
    {
      "inputs": [
        {
          "internalType": "string",
          "name": "_hash",
          "type": "string"
        }
      ],
      "name": "set",
      "outputs": [],
      "stateMutability": "nonpayable",
      "type": "function"
    }
  ],
  "bytecode": "0x608060405234801561001057600080fd5b50610873806100206000396000f3fe608060405234801561001057600080fd5b50600436106100415760003560e01c80634ed3885e1461004657806382a6c0ac14610062578063c2bc2efc14610092575b600080fd5b610060600480360381019061005b91906104a9565b6100c2565b005b61007c6004803603810190610077919061046d565b61013e565b6040516100899190610607565b60405180910390f35b6100ac60048036038101906100a79190610444565b6101f7565b6040516100b991906105e5565b60405180910390f35b600160003373ffffffffffffffffffffffffffffffffffffffff1673ffffffffffffffffffffffffffffffffffffffff1681526020019081526020016000208190806001815401808255809150506001900390600052602060002001600090919091909150908051906020019061013a92919061030f565b5050565b6001602052816000526040600020818154811061015a57600080fd5b906000526020600020016000915091505080546101769061076e565b80601f01602080910402602001604051908101604052809291908181526020018280546101a29061076e565b80156101ef5780601f106101c4576101008083540402835291602001916101ef565b820191906000526020600020905b8154815290600101906020018083116101d257829003601f168201915b505050505081565b6060600160008373ffffffffffffffffffffffffffffffffffffffff1673ffffffffffffffffffffffffffffffffffffffff168152602001908152602001600020805480602002602001604051908101604052809291908181526020016000905b828210156103045783829060005260206000200180546102779061076e565b80601f01602080910402602001604051908101604052809291908181526020018280546102a39061076e565b80156102f05780601f106102c5576101008083540402835291602001916102f0565b820191906000526020600020905b8154815290600101906020018083116102d357829003601f168201915b505050505081526020019060010190610258565b505050509050919050565b82805461031b9061076e565b90600052602060002090601f01602090048101928261033d5760008555610384565b82601f1061035657805160ff1916838001178555610384565b82800160010185558215610384579182015b82811115610383578251825591602001919060010190610368565b5b5090506103919190610395565b5090565b5b808211156103ae576000816000905550600101610396565b5090565b60006103c56103c08461065a565b610629565b9050828152602081018484840111156103dd57600080fd5b6103e884828561072c565b509392505050565b6000813590506103ff8161080f565b92915050565b600082601f83011261041657600080fd5b81356104268482602086016103b2565b91505092915050565b60008135905061043e81610826565b92915050565b60006020828403121561045657600080fd5b6000610464848285016103f0565b91505092915050565b6000806040838503121561048057600080fd5b600061048e858286016103f0565b925050602061049f8582860161042f565b9150509250929050565b6000602082840312156104bb57600080fd5b600082013567ffffffffffffffff8111156104d557600080fd5b6104e184828501610405565b91505092915050565b60006104f68383610573565b905092915050565b60006105098261069a565b61051381856106bd565b9350836020820285016105258561068a565b8060005b85811015610561578484038952815161054285826104ea565b945061054d836106b0565b925060208a01995050600181019050610529565b50829750879550505050505092915050565b600061057e826106a5565b61058881856106ce565b935061059881856020860161073b565b6105a1816107fe565b840191505092915050565b60006105b7826106a5565b6105c181856106df565b93506105d181856020860161073b565b6105da816107fe565b840191505092915050565b600060208201905081810360008301526105ff81846104fe565b905092915050565b6000602082019050818103600083015261062181846105ac565b905092915050565b6000604051905081810181811067ffffffffffffffff821117156106505761064f6107cf565b5b8060405250919050565b600067ffffffffffffffff821115610675576106746107cf565b5b601f19601f8301169050602081019050919050565b6000819050602082019050919050565b600081519050919050565b600081519050919050565b6000602082019050919050565b600082825260208201905092915050565b600082825260208201905092915050565b600082825260208201905092915050565b60006106fb82610702565b9050919050565b600073ffffffffffffffffffffffffffffffffffffffff82169050919050565b6000819050919050565b82818337600083830152505050565b60005b8381101561075957808201518184015260208101905061073e565b83811115610768576000848401525b50505050565b6000600282049050600182168061078657607f821691505b6020821081141561079a576107996107a0565b5b50919050565b7f4e487b7100000000000000000000000000000000000000000000000000000000600052602260045260246000fd5b7f4e487b7100000000000000000000000000000000000000000000000000000000600052604160045260246000fd5b6000601f19601f8301169050919050565b610818816106f0565b811461082357600080fd5b50565b61082f81610722565b811461083a57600080fd5b5056fea264697066735822122013f28b1151852a7b3b4546a3944e2cb5ef362b0ec3b8008be88c0f669b5e92b264736f6c63430008000033",
  "linkReferences": {},
  "deployedLinkReferences": {}
}